{
  "_format": "hh-sol-artifact-1",
  "contractName": "Casino",
  "sourceName": "contracts/Casino.sol",
  "abi": [
    {
      "anonymous": false,
      "inputs": [
        {
          "indexed": true,
          "internalType": "uint256",
          "name": "_commitment",
          "type": "uint256"
        },
        {
          "indexed": true,
          "internalType": "address",
          "name": "_sideA",
          "type": "address"
        }
      ],
      "name": "BetAccepted",
      "type": "event"
    },
    {
      "anonymous": false,
      "inputs": [
        {
          "indexed": true,
          "internalType": "uint256",
          "name": "_commitment",
          "type": "uint256"
        },
        {
          "indexed": false,
          "internalType": "uint256",
          "name": "value",
          "type": "uint256"
        }
      ],
      "name": "BetProposed",
      "type": "event"
    },
    {
      "anonymous": false,
      "inputs": [
        {
          "indexed": true,
          "internalType": "uint256",
          "name": "_commitment",
          "type": "uint256"
        },
        {
          "indexed": false,
          "internalType": "address",
          "name": "winner",
          "type": "address"
        },
        {
          "indexed": false,
          "internalType": "address",
          "name": "loser",
          "type": "address"
        },
        {
          "indexed": false,
          "internalType": "uint256",
          "name": "value",
          "type": "uint256"
        }
      ],
      "name": "BetSettled",
      "type": "event"
    },
    {
      "inputs": [
        {
          "internalType": "uint256",
          "name": "_commitment",
          "type": "uint256"
        },
        {
          "internalType": "uint256",
          "name": "_random",
          "type": "uint256"
        }
      ],
      "name": "acceptBet",
      "outputs": [],
      "stateMutability": "payable",
      "type": "function"
    },
    {
      "inputs": [
        {
          "internalType": "uint256",
          "name": "",
          "type": "uint256"
        }
      ],
      "name": "acceptedBet",
      "outputs": [
        {
          "internalType": "address",
          "name": "sideB",
          "type": "address"
        },
        {
          "internalType": "uint256",
          "name": "acceptedAt",
          "type": "uint256"
        },
        {
          "internalType": "uint256",
          "name": "randomB",
          "type": "uint256"
        }
      ],
      "stateMutability": "view",
      "type": "function"
    },
    {
      "inputs": [
        {
          "internalType": "uint256",
          "name": "_commitment",
          "type": "uint256"
        }
      ],
      "name": "proposeBet",
      "outputs": [],
      "stateMutability": "payable",
      "type": "function"
    },
    {
      "inputs": [
        {
          "internalType": "uint256",
          "name": "",
          "type": "uint256"
        }
      ],
      "name": "proposedBet",
      "outputs": [
        {
          "internalType": "address",
          "name": "sideA",
          "type": "address"
        },
        {
          "internalType": "uint256",
          "name": "value",
          "type": "uint256"
        },
        {
          "internalType": "uint256",
          "name": "placedAt",
          "type": "uint256"
        },
        {
          "internalType": "bool",
          "name": "accepted",
          "type": "bool"
        }
      ],
      "stateMutability": "view",
      "type": "function"
    },
    {
      "inputs": [
        {
          "internalType": "uint256",
          "name": "_random",
          "type": "uint256"
        }
      ],
      "name": "reveal",
      "outputs": [],
      "stateMutability": "nonpayable",
      "type": "function"
    }
  ],
  "bytecode": "0x608060405234801561001057600080fd5b50611099806100206000396000f3fe60806040526004361061004a5760003560e01c80630a3f297a1461004f578063427051c81461008f57806386e30f2e146100ce578063c2ca0ac5146100ea578063d43faafd14610113575b600080fd5b34801561005b57600080fd5b506100766004803603810190610071919061099c565b61012f565b6040516100869493929190610a34565b60405180910390f35b34801561009b57600080fd5b506100b660048036038101906100b1919061099c565b61018c565b6040516100c593929190610a79565b60405180910390f35b6100e860048036038101906100e39190610ab0565b6101d6565b005b3480156100f657600080fd5b50610111600480360381019061010c919061099c565b61046b565b005b61012d6004803603810190610128919061099c565b610803565b005b60006020528060005260406000206000915090508060000160009054906101000a900473ffffffffffffffffffffffffffffffffffffffff16908060010154908060020154908060030160009054906101000a900460ff16905084565b60016020528060005260406000206000915090508060000160009054906101000a900473ffffffffffffffffffffffffffffffffffffffff16908060010154908060020154905083565b60008083815260200190815260200160002060030160009054906101000a900460ff1615610239576040517f08c379a000000000000000000000000000000000000000000000000000000000815260040161023090610b4d565b60405180910390fd5b600073ffffffffffffffffffffffffffffffffffffffff1660008084815260200190815260200160002060000160009054906101000a900473ffffffffffffffffffffffffffffffffffffffff1673ffffffffffffffffffffffffffffffffffffffff1614156102de576040517f08c379a00000000000000000000000000000000000000000000000000000000081526004016102d590610bb9565b60405180910390fd5b600080838152602001908152602001600020600101543414610335576040517f08c379a000000000000000000000000000000000000000000000000000000000815260040161032c90610c4b565b60405180910390fd5b336001600084815260200190815260200160002060000160006101000a81548173ffffffffffffffffffffffffffffffffffffffff021916908373ffffffffffffffffffffffffffffffffffffffff160217905550426001600084815260200190815260200160002060010181905550806001600084815260200190815260200160002060020181905550600160008084815260200190815260200160002060030160006101000a81548160ff02191690831515021790555060008083815260200190815260200160002060000160009054906101000a900473ffffffffffffffffffffffffffffffffffffffff1673ffffffffffffffffffffffffffffffffffffffff16827fb727a22534e43d337addefe6245e691859b29f7bf356bc7e6d77ff92070fe12460405160405180910390a35050565b60008160405160200161047e9190610c8c565b6040516020818303038152906040528051906020012060001c9050600033905060006001600084815260200190815260200160002060000160009054906101000a900473ffffffffffffffffffffffffffffffffffffffff169050600060016000858152602001908152602001600020600201548518905060008060008681526020019081526020016000206001015490503373ffffffffffffffffffffffffffffffffffffffff1660008087815260200190815260200160002060000160009054906101000a900473ffffffffffffffffffffffffffffffffffffffff1673ffffffffffffffffffffffffffffffffffffffff16146105b3576040517f08c379a00000000000000000000000000000000000000000000000000000000081526004016105aa90610d19565b60405180910390fd5b60008086815260200190815260200160002060030160009054906101000a900460ff16610615576040517f08c379a000000000000000000000000000000000000000000000000000000000815260040161060c90610d85565b60405180910390fd5b60006002836106249190610dd4565b14156106be578373ffffffffffffffffffffffffffffffffffffffff166108fc8260026106519190610e34565b9081150290604051600060405180830381858888f1935050505015801561067c573d6000803e3d6000fd5b50847f0de94fe793c61cadb0d5993f7621dc7abda95f3f6e7eac8044a5a9b17ba099d08585846040516106b193929190610eed565b60405180910390a261074e565b8273ffffffffffffffffffffffffffffffffffffffff166108fc8260026106e59190610e34565b9081150290604051600060405180830381858888f19350505050158015610710573d6000803e3d6000fd5b50847f0de94fe793c61cadb0d5993f7621dc7abda95f3f6e7eac8044a5a9b17ba099d084868460405161074593929190610eed565b60405180910390a25b600080868152602001908152602001600020600080820160006101000a81549073ffffffffffffffffffffffffffffffffffffffff0219169055600182016000905560028201600090556003820160006101000a81549060ff0219169055505060016000868152602001908152602001600020600080820160006101000a81549073ffffffffffffffffffffffffffffffffffffffff0219169055600182016000905560028201600090555050505050505050565b6000806000838152602001908152602001600020600101541461085b576040517f08c379a000000000000000000000000000000000000000000000000000000000815260040161085290610f96565b60405180910390fd5b6000341161089e576040517f08c379a000000000000000000000000000000000000000000000000000000000815260040161089590611028565b60405180910390fd5b3360008083815260200190815260200160002060000160006101000a81548173ffffffffffffffffffffffffffffffffffffffff021916908373ffffffffffffffffffffffffffffffffffffffff16021790555034600080838152602001908152602001600020600101819055504260008083815260200190815260200160002060020181905550807fbe20caab9fd377d44064d0b07b3f918ac14a5649351da4e9e27f29989d96a8e8346040516109569190611048565b60405180910390a250565b600080fd5b6000819050919050565b61097981610966565b811461098457600080fd5b50565b60008135905061099681610970565b92915050565b6000602082840312156109b2576109b1610961565b5b60006109c084828501610987565b91505092915050565b600073ffffffffffffffffffffffffffffffffffffffff82169050919050565b60006109f4826109c9565b9050919050565b610a04816109e9565b82525050565b610a1381610966565b82525050565b60008115159050919050565b610a2e81610a19565b82525050565b6000608082019050610a4960008301876109fb565b610a566020830186610a0a565b610a636040830185610a0a565b610a706060830184610a25565b95945050505050565b6000606082019050610a8e60008301866109fb565b610a9b6020830185610a0a565b610aa86040830184610a0a565b949350505050565b60008060408385031215610ac757610ac6610961565b5b6000610ad585828601610987565b9250506020610ae685828601610987565b9150509250929050565b600082825260208201905092915050565b7f4265742068617320616c7265616479206265656e206163636570746564000000600082015250565b6000610b37601d83610af0565b9150610b4282610b01565b602082019050919050565b60006020820190508181036000830152610b6681610b2a565b9050919050565b7f4e6f626f6479206d616465207468617420626574000000000000000000000000600082015250565b6000610ba3601483610af0565b9150610bae82610b6d565b602082019050919050565b60006020820190508181036000830152610bd281610b96565b9050919050565b7f4e65656420746f20626574207468652073616d6520616d6f756e74206173207360008201527f6964654100000000000000000000000000000000000000000000000000000000602082015250565b6000610c35602483610af0565b9150610c4082610bd9565b604082019050919050565b60006020820190508181036000830152610c6481610c28565b9050919050565b6000819050919050565b610c86610c8182610966565b610c6b565b82525050565b6000610c988284610c75565b60208201915081905092915050565b7f4e6f7420612062657420796f7520706c61636564206f722077726f6e6720766160008201527f6c75650000000000000000000000000000000000000000000000000000000000602082015250565b6000610d03602383610af0565b9150610d0e82610ca7565b604082019050919050565b60006020820190508181036000830152610d3281610cf6565b9050919050565b7f42657420686173206e6f74206265656e20616363657074656420796574000000600082015250565b6000610d6f601d83610af0565b9150610d7a82610d39565b602082019050919050565b60006020820190508181036000830152610d9e81610d62565b9050919050565b7f4e487b7100000000000000000000000000000000000000000000000000000000600052601260045260246000fd5b6000610ddf82610966565b9150610dea83610966565b925082610dfa57610df9610da5565b5b828206905092915050565b7f4e487b7100000000000000000000000000000000000000000000000000000000600052601160045260246000fd5b6000610e3f82610966565b9150610e4a83610966565b9250817fffffffffffffffffffffffffffffffffffffffffffffffffffffffffffffffff0483118215151615610e8357610e82610e05565b5b828202905092915050565b6000819050919050565b6000610eb3610eae610ea9846109c9565b610e8e565b6109c9565b9050919050565b6000610ec582610e98565b9050919050565b6000610ed782610eba565b9050919050565b610ee781610ecc565b82525050565b6000606082019050610f026000830186610ede565b610f0f6020830185610ede565b610f1c6040830184610a0a565b949350505050565b7f746865726520697320616c7265616479206120626574206f6e2074686174206360008201527f6f6d6d69746d656e740000000000000000000000000000000000000000000000602082015250565b6000610f80602983610af0565b9150610f8b82610f24565b604082019050919050565b60006020820190508181036000830152610faf81610f73565b9050919050565b7f796f75206e65656420746f2061637475616c6c792062657420736f6d6574686960008201527f6e67000000000000000000000000000000000000000000000000000000000000602082015250565b6000611012602283610af0565b915061101d82610fb6565b604082019050919050565b6000602082019050818103600083015261104181611005565b9050919050565b600060208201905061105d6000830184610a0a565b9291505056fea2646970667358221220c3b12e61c47d5feb2baa68d96336242d345436cc8bcdf57c1a2f087ceb0ba9aa64736f6c63430008090033",
  "linkReferences": {},
  "deployedLinkReferences": {}
}